:0200000460108A
:100000003DB8F396000000000004000028CC00007A
:10001000000000000000000000000000FFFFFFFFE4
:10002000FFFFFFFFFFFFFFFFFFFFFFFFFFFFFFFFE0
:10003000FFFFFFFFFFFFFFFFFFFFFFFFFFFFFFFFD0
:10004000FFFFFFFFFFFFFFFFFFFFFFFFFFFFFFFFC0
:10005000FFFFFFFFFFFFFFFFFFFFFFFFFFFFFFFFB0
:1004000000300534457A10185179101853791018B6
:10041000837910188B791018937910189B7910181C
:10042000000000000000000000000000A379101888
:10043000AB79101800000000B3791018BB791018C0
:10044000C3791018C3791018C3791018C37910181C
:10045000C3791018C3791018C3791018C37910180C
:10046000C3791018C3791018C3791018C3791018FC
:10047000C3791018C3791018C3791018C3791018EC
:10080000C37910180348044B834202D0034B03B151
:10081000184770472CA300342CA3003400000000BC
:10082000064B0749C91A891048BF0131491003D046
:10083000044B0BB101481847704700BF2CA300348C
:100840002CA300340000000010B5064C237843B9F7
:10085000FFF7D8FF044B13B10448AFF30080012326
:10086000237010BD38A8003400000000C01500142B
:1008700008B5054B1BB105490548AFF30080BDE83D
:100880000840FFF7CDBF00BF000000003CA80034C7
:10089000C0150014A3F5803A704700BF174B002B1A
:1008A00008BF134B9D46FFF7F5FF00218B460F460F
:1008B0001348144A121A09F0B7FB0E4B002B00D054
:1008C00098470D4B002B00D09847002000210400D2
:1008D0000D000D48002802D00C48AFF3008009F04D
:1008E00005FC2000290000F023F808F081FC00BF7F
:1008F0000000080000000000000000000030053487
:1009000038A80034D0AD0034000000000000000022
:1009100008B506F09FFD054B1A6E42F080021A667C
:100920001A6E42F020021A6608BD00BF0010805205
:1009300010B582B06A4B0022C3F8D820694AC3F8C8
:10094000DC2002F52A2202F6E172C3F8E02001223F
:10095000C3F8D8206449C3F8DC106449C3F8E01038
:100960000221C3F8D8106249C3F8DC10E331C3F8A0
:10097000E0100321C3F8D8104FF08441C3F8DC1015
:100980005C49C3F8E0100421C3F8D8104FF000719F
:10099000C3F8DC105849C3F8E0100521C3F8D8109B
:1009A0004FF01851C3F8DC105449C3F8E010062189
:1009B000C3F8D8104FF00851C3F8DC105049C3F801
:1009C000E0100721C3F8D8104FF00061C3F8DC1025
:1009D0004C49C3F8E010C3F8D0201A6922F008028D
:1009E0001A61DA6822F4C04222F008021204120CE2
:1009F00042F0BF6242F41032DA60434A4349C2F81F
:100A000080124349C2F884126FF0C001C2F8881204
:100A10004FF0FF31C2F88C12C2F8901201F500219C
:100A2000C2F89412D3F8882042F47002C3F88820E8
:100A3000384AD2F8881041F47001C2F88810D3F80F
:100A40008C1041F44061C3F88C10D2F88C3043F420
:100A50004063C2F88C30A2F5FF32536B23F05C4345
:100A600043F05043536307F023FB00B101BE62B66D
:100A70004FF4E1330093FF231A463521372006F067
:100A8000B9FC00B101BE244809F088F9234809F0F7
:100A9000EBF9FFF73DFF07F01FFB012300220421C4
:100AA000184605F05BFE012007F05CFB00F012FB2E
:100AB00000F04AFB00F022FB194BD3F8002482F32C
:100AC0008888D3F8044400F027FB00F02BFB64086F
:100AD0006400204621462246234607F069FBFEE7D4
:100AE00000ED00E00050052400500504E1FF5F0622
:100AF00000FF3318E1FFFF67E1FFC103E1FF4F266D
:100B0000E1FFC123E1FFFF0B00E100E0FFFF0F0069
:100B100000FBFF9F00ED02E034BD101840BD10182F
:100B20000000340830B585B04FF4501301934FF4F2
:100B30000C0302930C238DF80C3002238DF80D303A
:100B400001238DF80E3003238DF80F300D4C01A9D1
:100B5000204603F019FC05238DF80D3001A920462D
:100B600003F012FC06258DF80D5001A9204603F074
:100B70000BFC8DF80D5001A9034803F005FC05B0EE
:100B800030BD00BF001042540030425470B592B0E6
:100B900000230F934FF0806310930C238DF84430A3
:100BA00002238DF8453001238DF8463003238DF85C
:100BB0004730154C01AB4FF47A721449204604F0CB
:100BC00079FA01A9204604F02BFB114D0FA9284604
:100BD00003F0DAFB05238DF845300FA9284603F012
:100BE000D3FB06268DF845600FA9284603F0CCFB01
:100BF0008DF845600FA9074803F0C6FB236823F072
:100C00000043236012B070BD0000445490BD101822
:100C1000001044540030445408B56E4901230B7051
:100C20006D4803F0F3FC00B101BE6C4901230B7168
:100C30004B718B7100230B804B80674803F030FDB4
:100C400000B101BE654902230B8006234B80624838
:100C500003F026FD00B101BE60490D230B804B80DF
:100C60005D4803F01DFD00B101BE5C4910230B80FF
:100C70004B80594803F014FD00B101BE57491223BF
:100C80000B804B80544803F00BFD00B101BE53496B
:100C900015230B8016234B804F4803F001FD00B154
:100CA00001BE4E491E230B804B804B4803F0F8FCDD
:100CB00000B101BE494921230B8024234B804648C3
:100CC00003F0EEFC00B101BE444927230B8028232A
:100CD0004B80414803F0E4FC00B101BE3F492F23A3
:100CE0000B804B803C4803F0DBFC00B101BE3B496C
:100CF00031230B804B80384803F0D2FC00B101BE99
:100D0000364933230B8058234B80334803F0C8FC0B
:100D100000B101BE31495B230B805C234B802E4820
:100D200003F0BEFC00B101BE2C496D230B80722381
:100D30004B80294803F0B4FC00B101BE274976235B
:100D40000B8083234B80244803F0AAFC00B101BE32
:100D5000224986230B8090234B801F4803F0A0FC80
:100D600000B101BE1D4992230B804B801A4803F04D
:100D700097FC00B101BE194994230B8099234B8045
:100D8000154803F08DFC00B101BE14499C230B8073
:100D90004FF499734B80104803F082FC00B101BE00
:100DA0000E494FF49A730B8040F235134B800A487A
:100DB00003F076FC00B101BE094900230B8040F22C
:100DC00035134B8064234B60034803F003FD00B1EF
:100DD00001BE08BD64A80034000002525CA80034C3
:100DE00054A8003408B5334901230B70324803F08E
:100DF0000DFC00B101BE314901230B714B718B71A8
:100E000000230B8005234B802B4803F049FC00B1E5
:100E100001BE2A490B230B804B80274803F040FC7E
:100E200000B101BE25490E230B8012234B802248BE
:100E300003F036FC00B101BE204914230B801E23B1
:100E40004B801D4803F02CFC00B101BE1B49302330
:100E50000B8059234B80184803F022FC00B101BEDF
:100E6000164966230B808E234B80134803F018FC31
:100E700000B101BE114990230B804B800E4803F056
:100E80000FFC00B101BE0D4994230B809F234B80C2
:100E9000094803F005FC00B101BE094900230B809D
:100EA0009F234B8064234B60034803F093FC00B105
:100EB00001BE08BD64A80034000002545CA80034E0
:100EC00054A8003408B50A2005F0BEFC012003F048
:100ED000D1F90521002003F051FB08BD10B584B005
:100EE0004FF4AA2301934FF42C33029307238DF878
:100EF0000C3001238DF80E3003238DF80F300223C0
:100F00008DF80D300A4C01A9204603F03DFA052367
:100F10008DF80D3001A9204603F036FA06238DF82E
:100F20000D3001A9204603F02FFA04B010BD00BF18
:100F3000004023522DE9F04784B0002301934FF481
:100F4000FC2ACDF808A04FF007098DF80C904FF05F
:100F500001088DF80E8003278DF80F7002238DF89D
:100F60000D30164C01A9204603F00EFA05268DF827
:100F70000D6001A9204603F007FA06258DF80D50F3
:100F800001A9204603F000FACDF804A04FF4005365
:100F900002938DF80C908DF80E808DF80F708DF8FF
:100FA0000D6001A9204603F0EFF98DF80D5001A95D
:100FB000204603F0E9F904B0BDE8F0870040245270
:100FC00000B591B04FF428330A934FF4B0330B932C
:100FD00007230C9301230E9303230F9302230D93F6
:100FE0000DF10C0C0DF1280EBEE80F00ACE80F005F
:100FF0009EE803008CE803004FF0FF3203A918209D
:1010000006F051FA0990002203A9684606F074FA26
:1010100005230D930DF10C0C0DF1280EBEE80F0009
:10102000ACE80F009EE803008CE803004FF0FF32AD
:1010300003A9182006F037FA0990002203A9684690
:1010400006F05AFA06230D930DF10C0C0DF1280E43
:10105000BEE80F00ACE80F009EE803008CE8030038
:101060004FF0FF3203A9182006F01DFA0990002264
:1010700003A9684606F040FA11B05DF804FB0000D1
:1010800010B584B0002301934FF4A003029308230A
:101090008DF80C3001238DF80E3003238DF80F30BE
:1010A00002238DF80D300A4C01A9204603F06CF99B
:1010B00005238DF80D3001A9204603F065F90623BC
:1010C0008DF80D3001A9204603F05EF904B010BD83
:1010D0000020645408B5FFF701FFFFF72BFFFFF76F
:1010E0006FFFFFF7CDFF0121034803F035FAFFF74B
:1010F00019FDFFF74BFD08BD0020645408B505211C
:10110000092003F03BFA0521062003F037FA0521F8
:101110000B2003F033FA08BD08B5FFF77DFDFFF79C
:1011200061FE08BD08B50749022003F047FA00B187
:1011300008BD0521002003F031FA0521002003F04D
:101140001DFAF5E7C50E101808B506490B468022B2
:1011500043F80C2B4B60044B8B60032003F09AF890
:1011600008BD00BF00E00F3400400534000000005F
:101170000230800803D001300238FCD100BF00BF2C
:101180007047EFF3108072B6704780F31088704795
:1011900001BE0148704700BF02020204024B0B600F
:1011A000092313600020704728A0003408B5407858
:1011B00005F0A4FA08BD000010B504468A4294BFA9
:1011C00000230123834209D080F001038A422CBF0F
:1011D000002101218B4201D044B110BD054BA3FB7E
:1011E0000232910C012005F0D5FBF5E706F05CFC1E
:1011F000F3E700BF83DE1B432DE9F04104460B7883
:10120000452B0BD0463BDBB2012B38D891F801803F
:101210000378472B04D108F1020801E091F801801E
:10122000002004F021FC0646002004F0F3FB05F04A
:101230004EFA20FA06F7404605F049FA20FA06F67B
:10124000637883B15FFA88F1607804F0C9FB0546E2
:1012500063782BB968B9324639460020FFF7ACFFF6
:101260002846BDE8F081324639460120FFF7A4FF49
:10127000E8E73A4631460020FFF79EFFF0E7014DD0
:10128000EEE700BF01020204F8B5054601390F2957
:1012900052D8DFE801F0084327292B2D2F313335B1
:1012A00037393B3D3F410026002004F0DDFB074677
:1012B000002004F0AFFB05F00AFA20FA07F720FA45
:1012C00006F46B7863B33146687804F0B1FB0646E8
:1012D0006B782BB950BB224639460020FFF76CFFD4
:1012E0003046F8BD0226DFE70326DDE70426DBE70C
:1012F0000526D9E70626D7E70726D5E70826D3E748
:101300000926D1E70A26CFE70B26CDE70C26CBE747
:101310000D26C9E70E26C7E70F26C5E70126C3E756
:10132000224639460120FFF747FFCCE73A462146DF
:101330000020FFF741FFD3E7004ED1E7000202048F
:1013400008B519B1407805F0E9F908BD407804F016
:1013500033FBFAE708B5407804F020FB08BD000035
:1013600008B503789B080848A0FB0320C00800EBE1
:101370008002A3EB4203DBB243EA001002F06BF9F8
:1013800004F00CFB08BD00BFCDCCCCCC30B583B095
:1013900004460D46FFF7E4FF70B3217811F0020F09
:1013A00014D18B08154AA2FB032C4FEADC0C0CEB82
:1013B0008C02A3EB420000026B1E627801F0030175
:1013C00040EA0C4003F056FF03B030BD8B080B4AD7
:1013D000A2FB032C4FEADC0C0CEB8C02A3EB4200CB
:1013E0000002002300936B1E627801F0030140EAC3
:1013F0000C4003F0D3FFE7E70148E5E7CDCCCCCCC8
:101400000502020438B504460D46FFF7A9FF30B3C4
:1014100095B121788808134BA3FB0023DB0803EB6D
:101420008302A0EB42000002627801F0030140EA6F
:10143000034004F0EBF838BD21788808094BA3FB82
:101440000023DB0803EB8302A0EB4200000262787A
:1014500001F0030140EA034004F07AF9EBE70248A7
:10146000E9E700BFCDCCCCCC0502020400487047B0
:1014700078C310182DE9F04182B007460D4690461A
:10148000084602F03DF9C6B2002401E00134E4B29E
:10149000B44213D205238DF804308DF805508DF831
:1014A000064001A800F038FB03460028EED13D704D
:1014B0007C700122BA70C7F8048000E0024B184625
:1014C00002B0BDE8F08100BF020E020430B583B067
:1014D0000C46054678B184B105238DF80430237895
:1014E0008DF8053063788DF8063001A800F014FB04
:1014F00028B103B030BD01BEEDE701BEECE72268C4
:1015000063682A606B600123AB70F2E710B5034695
:1015100048B118784A2808D03F280AD95868446842
:101520001846A04710BD01BEF3E71846FFF708FFB5
:10153000F8E71846FFF766FFF4E708B5034648B139
:101540001A784A2A08D03F2A0AD95A6812691846D6
:10155000904708BD01BEF3E71846FFF795FEF8E790
:101560001846FFF713FFF4E710B582B0044690B1B8
:10157000A37803B901BE05238DF8043023788DF8D4
:10158000053063788DF8063001A800F009FB0023D0
:10159000A37002B010BD01BEEAE708B5034648B12A
:1015A0001A78082A08D0092A00D001BE184600F08F
:1015B0009FF908BD01BEF3E7184600F0AFF8F8E761
:1015C00008B5034648B11878082808D0092800D083
:1015D00001BE184600F0C4F908BD01BEF3E7184685
:1015E00000F0D8F8F8E708B5034648B11A78082A99
:1015F00008D0092A00D001BE184600F0D5F908BD70
:1016000001BEF3E7184600F0F5F8F8E710B5044618
:10161000C0B12046FFF7C1FF00B101BE0221204644
:10162000FFF7E1FF00B101BEB4F8801060290BD1D3
:101630002378082B10D02378092B11D094F882300E
:1016400093B110BD01BEE4E702222046FFF7B8FFC8
:101650000028EDD001BEEBE7204600F021F8EAE7D4
:10166000204600F007F9E9E7204600F099FAE8E79C
:101670000023032B06D8054A52F8232022B9013350
:10168000DBB2F6E7002070470120704768A80034FD
:101690008000C0B20844C0B21A30C0B27047000027
:1016A00010B50446483002F095F9A178164802F0CA
:1016B0009CF963789B00DBB2A2781344DBB203F1A0
:1016C00062010B4601F01F015B0901228A402033B1
:1016D0000E4941F82320BFF34F8FBFF36F8F62781D
:1016E0009200D2B2A3781344DBB2094A002142F837
:1016F0002310FFF7BDFF00B110BD064800F0AEFE9D
:10170000054B00221A70F7E700001A5400E100E0D0
:1017100068A800344CA0003478A80034054B9B68BE
:10172000DBB2817801228A401A4214BF01200020D6
:10173000704700BF00001A5438B5022922D008298A
:1017400020D0012914D001BE19E000231D4301342B
:10175000E4B2032C0FD875B90C4B53F824000028C1
:10176000F3D0FFF7DBFF08B10123EFE70023EDE73C
:1017700000242546EDE785F00105054B1D70044B5F
:10178000187838BD024B00221A70F8E768A80034B8
:1017900078A80034022A27D810B50C468378032B8A
:1017A00000D901BE114910331B02CA5822F0004271
:1017B000CA50836C23F0C003836443F080038364C6
:1017C0008378032B00D901BE084910331B02CA5885
:1017D00042F00042CA5081784078FFF759FF014635
:1017E000204600F0F9FA10BD0148704700001A5475
:1017F0000106020402291ED88378032B00D901BEFA
:101800000E4910331B02CA5822F00042CA50836CA2
:1018100023F03003836443F0300383648378032B25
:1018200000D901BE054910331B02CA5842F00042DC
:10183000CA50002070470248704700BF00001A5489
:101840000106020400230F2B06D8054A52F8232074
:1018500022B90133DBB2F6E7002070470120704760
:101860007CA800340001C0B20844C0B20A30C0B243
:101870007047000010B50446483002F0C7F8A17860
:10188000164802F0CFF8637813B9A3780F2B1BD951
:1018900001BE40F2FF3303F01F015B0901228A40C1
:1018A00020330F4941F82320BFF34F8FBFF36F8FD1
:1018B0006278A37803EB02130A4A002142F823104E
:1018C000FFF7C0FF10B110BD5233E4E7064800F047
:1018D000C5FD064B00221A70F5E700BF0000275235
:1018E00000E100E07CA800345CA00034BCA8003417
:1018F00083789B0103F1A44303F51E135868C00FBE
:101900007047000038B5022922D0082920D00129CB
:1019100014D001BE19E000231D430134E4B20F2CA2
:101920000FD875B90C4B53F824000028F3D0FFF7FB
:10193000DFFF08B10123EFE70023EDE70024254690
:10194000EDE785F00105054B1D70044B187838BD97
:10195000024B00221A70F8E77CA80034BCA80034BF
:10196000022A1CD838B504460D46B0F88030602BEA
:1019700013D0A36C23F0C003A36443F08003A364DB
:10198000A1786078FFF76EFF0146284600F024FA40
:1019900010B96023A4F8803038BD01BEE9E70148E2
:1019A000704700BF01060204022908D8836C23F0A7
:1019B0003003836443F030038364002070470148A0
:1019C000704700BF0106020470B504281ED00C4603
:1019D00011461E287DD80246404D35F810E0451CC2
:1019E0001E2D16D8EDB23D4E36F815504FF0010CB5
:1019F0000CFA02FC3A4A0CEA02026AB9A644A3F8BD
:101A000000E01B88AB4266D2002070BD4524052053
:101A1000DFE74FF4A375E9E7C21E192A36D8DFE8DD
:101A200002F00D3538352B0F25352D35353535354B
:101A30002F3531352735353535353329294A00E0FD
:101A4000294A1D80002ADCD0033819283CD8DFE859
:101A500000F0223B3E3B3B22333B353B3B3B3B3B99
:101A6000223B373B223B3B3B3B3B39221F4AE8E7CB
:101A70001F4AE6E71F4AE4E71F4AE2E71F4AE0E79A
:101A80001F4ADEE71F4ADCE71F4ADAE701BE0022F1
:101A9000D7E71E4AD5E70126B442B2D232F8140085
:101AA000704411FA80F11980611CB142A9DA32F850
:101AB00011507544ADB2A4E70226EDE72426EBE70A
:101AC0000226E9E70226E7E701BE0026E4E7502602
:101AD000E2E70F4899E70E4897E700BFC4C4101823
:101AE000280B2A18B8C3101860C4101864C4101842
:101AF000B8C41018C0C410185CC4101868C41018FA
:101B0000B0C41018B4C41018BCC41018BCC310184A
:101B1000000E020400207047F0B583B00446002791
:101B2000FFF72FFB06460DF10603A27861782078B7
:101B3000FFF74AFF054668B9BDF80630C3F3C70290
:101B400003F007031449895C012202FA03F31942E6
:101B500018BF174605B9EFB92DB13046FFF715FB91
:101B6000284603B0F0BD0DF10603A2786178207815
:101B7000FFF72AFF05460028EFD1BDF80630C3F372
:101B8000C70103F00703044801229A40435C134352
:101B90004354E2E7014DE0E7C0A80034010E02041F
:101BA00030B583B00446FFF7ECFA05460DF10603A5
:101BB000A27861782078FFF707FF014668B9BDF881
:101BC0000630C3F3C70003F00702074C012393401C
:101BD000DB435BB2225C1340235401B101BE2846B3
:101BE000FFF7D3FA03B030BDC0A80034024600238B
:101BF000184601E00133DBB2012B05D80349C95C6B
:101C00009142F7D21846F5E7704700BF04C5101897
:101C100010B50446FFF7EAFF014B185C201A10BD0F
:101C200004C510180020092807D8054B1B5C13B900
:101C30000130C0B2F7E740B270474FF0FF30704755
:101C4000C8BE101838B504460D46FFF7EBFF0A4B27
:101C50001B5D4BB1201A00F5A410303005EB0020BD
:101C600080000068C0B238BD04F5A414203405EB30
:101C70000425AD002868F5E7C8BE10182DE9F84323
:101C800004461D469DF820809DF824701F4B1B5C68
:101C9000C3B1411ACCB22046FFF7BAFF45EA00258E
:101CA0002046FFF7A3FF45EA004040F0804040F4A3
:101CB000805027B14246002105F0E0FA1DE005F012
:101CC0000BFB1AE01646FFF7A3FF4FEA002946EA8E
:101CD00000262046FFF78AFF46EA004649EA050942
:101CE00049EA004949F080414FB904F5A414203471
:101CF00005EB0425AD0000202860BDE8F8834346CD
:101D00000022304605F058FAF7E700BFC8BE1018A9
:101D10002DE9F04782B00C469046C0F3470600F02C
:101D20000107FFF77FFF8146244B1D5D1B57002BEA
:101D300004DB234B13F804A0002416E005F07F0514
:101D400055FA80F5EDB2F4E7B8F1010F14BF0023A6
:101D50000123019300975346E2B25FFA89F12846C6
:101D6000FFF78CFF22E00134A4B22A46154B33F86A
:101D70001530A34219D9144B53F825301B5DB342DB
:101D8000F1D1124B9B5C1BB11FFA8AF3A34210D115
:101D9000B8F1020F04D051462846FFF753FF50B95F
:101DA000B8F1000FD0D1002000E0094802B0BDE832
:101DB000F0870748FAE70748F8E700BF5CBE10184D
:101DC00068C21018D4C2101800A00034C8BE101881
:101DD000010D0204000D020408B50222FFF798FF6E
:101DE00008BD000070B582B00E468378AF2B06D8D0
:101DF000DD0805F5250505F50075ED0100E00D4D43
:101E0000C27803F007040092012332462146284697
:101E100001F0C4FE0A2E04D00B2E06D0002002B022
:101E200070BD0123A340AB60F8E70123A3406B60C2
:101E3000F4E700BF0000815210B582B00146AF2820
:101E400010D8C00800F5250000F50070C00100247E
:101E500000940123082201F0070101F09FFE2046B3
:101E600002B010BD0048F2E70000815200B583B017
:101E7000ADF8000001911146684604F0B1FC03B0D2
:101E80005DF804FB38B50346084850F8234008487D
:101E900050F8235044B12DB1002318460BB9204609
:101EA000A84738BD0123F8E70123F6E71CA9003451
:101EB000ECA800342DE9F04105468846084601F0BB
:101EC000B2FB06460024012718E0022229463046CC
:101ED000FFF7D8FF0136F6B2B442F6D8B8F1020FD8
:101EE0001BD0B8F1080F18D0B8F1010F18D1BFB14D
:101EF0000D4B01221A7013E00134E4B20B2CEDD823
:101F0000324629462046FFF7BDFF07460028F3D199
:101F1000B8F1010FF0D10026DEE7034B00221A7062
:101F20003846BDE8F08100BFE9A800340246002031
:101F30000B2806D8044B1B5C934203D00130C0B27F
:101F4000F6E7FF20704700BF3CC5101808B52B28E6
:101F500028D024DB962822DC8C2820DB8C380A2829
:101F60001DD8DFE800F006210A0C0E101214161816
:101F70001A000120FFF7DAFF08BD0320FAE704206A
:101F8000F8E70520F6E70620F4E70720F2E7082047
:101F9000F0E70920EEE70A20ECE70B20EAE701BEB4
:101FA000FF20E7E70020E5E70220E3E708B5EFF3CD
:101FB0000580103800B240F2FF33984205D0FFF799
:101FC000C5FF034B53F8200008BD0020FCE700BF0D
:101FD0001CA900342DE9F04383B080460E46174615
:101FE0009946002416E099F802206B789A4201D0B5
:101FF000002325E0012323E018238DF80430735CCF
:102000008DF805306B788DF8063001A8FFF784FD58
:10201000C8B10134BC421AD2A10006EB840595F880
:1020200002C0C445F5D1B9F1000FE5D099F80030F0
:10203000182BE1D199F80120735C9A42D3D0002388
:10204000002BE6D004E001A8FFF7AAFD00E0002580
:10205000284603B0BDE8F0832DE9F04782B0804602
:102060000E4617460024A24600E00134BC4221D2AD
:102070004FEA840906EB8405AB784345F5D116F8A1
:102080002400FFF753FF18238DF804308DF8050066
:102090006B788DF8063001A8FFF73EFD0028E4D1EB
:1020A00001A8FFF77DFD16F80920012393404AEAB5
:1020B000030ADAE7504602B0BDE8F087014B187812
:1020C000704700BFE9A800340378FF2B25D0DA0859
:1020D000AF2B05D802F5250202F50072D20100E00F
:1020E0000E4A03F00703032B0BD8916EDB001F2071
:1020F000984021EA0001072000FA03F30B4393669E
:102100007047043BD16EDB001F20984021EA00019C
:10211000072000FA03F30B43D36670470000815297
:1021200038B50C461546FFF701FF134B43F8204026
:10213000124B43F8205000231A4603E00132D2B27A
:102140000133DBB20B2B07D80B4850F823000028D3
:10215000F6D0012AF2D105E02AB904B101BE08483F
:1021600000F07CF938BD012AFCD1002CFAD00448DB
:1021700000F068F9F6E700BF1CA90034ECA80034B1
:102180006CA000342DE9F0410446884616461F46EF
:1021900004E0012388F80030E3B1E46840F2897577
:1021A000AC4217D02568002DF7D094F804C036EA69
:1021B0000C0CF2D1637937EA0303EED0A2683946FA
:1021C0003046A8470028E4D1012F01D00123E1E7E0
:1021D0000023DFE72046BDE8F08170B504460D46D8
:1021E000164600E0E468AC4210D02368002BF9D01A
:1021F00094F804C036EA0C0CF4D1627912F0020FA4
:10220000F0D1A268022130469847EBE770BD38B59F
:1022100005460C46FEF7B5FFE36813B1FEF7B5FFC0
:1022200038BD2B68E3602C60F8E738B504460D46EE
:10223000FEF7A7FF01E003F10C04236840F2897266
:10224000934205D0AB42F6D1EB6823600023EB60EC
:10225000FEF79BFF38BD00002DE9F04182B00D462E
:1022600001F0EDF9044601238DF80730022808D06B
:10227000082806D0102804D01A4B1E681A4B1F6875
:1022800003E0184B1F68184B1E6823462A460DF1C1
:1022900007013846FFF776FF80469DF8073063B99F
:1022A00030469DF807300BB9012C0ED09DF8073051
:1022B000B3B1002002B0BDE8F08123462A460DF1FB
:1022C00007013046FFF75EFFEBE72A46014630463E
:1022D000FFF783FF2A4641463846FFF77EFFE5E7D2
:1022E0000248E7E780A000347CA00034FF004200F1
:1022F00008B508460221FFF7AFFF08BD08B508463C
:10230000012902D1044B1B881BB90421FFF7A4FF4C
:1023100008BD0248FCE700BF4CA90034FF004200A2
:1023200008B508464021FFF797FF08BD08B50846E5
:102330001021FFF791FF08BD08B508460821FFF7F7
:102340008BFF08BD10B50446FFF786FF042C02D0B2
:10235000082C17D010BD4FF0E0231B6913F0010FBC
:1023600004D00E4B1B7813B1012300E000230C4A6C
:102370001370002BEED04FF0E022136923F001031D
:102380001361E7E7064B1B78002BE3D04FF0E02208
:10239000136943F001031361DCE700BF4EA9003469
:1023A0003CAA003408B50846012902D1044B1B8819
:1023B0001BB90221FFF7C6FF08BD0248FCE700BFBA
:1023C0004CA90034FF00420008B508460121FFF780
:1023D000B9FF08BD38B50C4620212046FFF73CFF69
:1023E0000546042C01D0284638BD002004F086F9AB
:1023F000034BA3FB0031890C012004F0CBFAF2E778
:1024000083DE1B4338B584468E4615460C4C0FCCF4
:10241000CCF80000CCF80410CCF80820CCF80C3034
:1024200007CCCCF81000CCF81410CCF81820CCF85D
:1024300000508CF804E0604604F064FD38BD00BF35
:1024400060C5101808B5014618B10348FFF7DFFE54
:1024500008BD01BEF9E700BF80A0003408B5014601
:1024600018B10348FFF7E1FE08BD01BEF9E700BF60
:1024700080A0003408B504F00FFE38B9224A0021CC
:102480002248FFF7BFFF20B9214808BD04F0EEFD48
:10249000F4E7204A01212048FFF7B4FF08B91C489F
:1024A000F3E71E4A02211E48FFF7ACFF08B918489F
:1024B000EBE71C4A03211C48FFF7A4FF08B91448A6
:1024C000E3E71A4A04211A48FFF79CFF08B91048AD
:1024D000DBE7184A07211848FFF794FF08B90C48B2
:1024E000D3E7164A05211648FFF78CFF08B90848BC
:1024F000CBE7144A06211448FFF784FF08B10020F7
:10250000C3E70348C1E700BFC92310181CAA003461
:10251000011B0204A523101858A9003439231018F0
:10252000ACA900342D23101800AA0034D5231018AC
:10253000E4A9003421231018C8A90034FD22101882
:1025400090A90034F122101874A90034024600B199
:1025500001BE024B43F82210704700BF38AA003476
:1025600008B504F071F9002008BD012803D0022845
:1025700003D10320704702207047002070470138C4
:10258000032809D8DFE800F0020B04060220704798
:10259000062070470820704701BE022070470420C3
:1025A0007047814206D9091A642303FB01F1B1FB8C
:1025B000F0F07047411A642303FB01F1B1FBF0F026
:1025C000704700002DE9F04784B005468DF80710EC
:1025D0008DF806208DF805301F2303710023437307
:1025E000FF23C371037243728372CBB2FF2B20D0DF
:1025F0009DF80620FF2A22D0FF2B02D1FF2A00F0EF
:102600003081FEF7BEFD0746974B1E689DF8070018
:10261000FF281AD19DF80600FF281CD19DF805005F
:10262000FF281ED19DF83000FF2820D12EB30024B2
:102630002AE09DF83020FF2ADAD08C4C7FE09DF80C
:102640000510FF29D8D0894C79E00B228849FFF783
:1026500003FD0640DEE70B228649FFF7FDFC06403E
:10266000DCE70B228449FFF7F7FC0640DAE70B2290
:102670008249FFF7F1FC0640D8E73846FEF785FDB2
:102680007A4C5CE00134E4B226FA04F313F0010F53
:10269000F8D018238DF80C308DF80D4000238DF8FC
:1026A0000E3003AB0B2272499DF80700FFF792FC36
:1026B000064603AB0B226F499DF80600FFF78AFC24
:1026C000824603AB0B226C499DF80500FFF782FCA4
:1026D000804603AB0B2269499DF83000FFF77AFC76
:1026E00081469DF80730FF2B00D0A6B19DF806303B
:1026F000FF2B02D0BAF1000F0DD09DF80530FF2B53
:1027000002D0B8F1000F06D09DF83030FF2B03D077
:10271000B9F1000F00D101BE18238DF80830204612
:10272000FFF704FC8DF8090000238DF80A3002A899
:10273000FFF7F2F904463846FEF727FD1CB12046A4
:1027400004B0BDE8F087039BAB801B0CAB712F1D61
:10275000384601F09DF89DF80730FF2B43D11CB996
:102760009DF80630FF2B4FD17CB9B8F1000F0CD08B
:102770000821404600F0FBFE0446002855D024B94D
:102780000123EB729DF805306B727CB9B9F1000F33
:102790000CD00621484600F0EAFE0446002849D045
:1027A00024B901232B739DF83030AB725CB90D9BBB
:1027B000002B43D000236B7305F110030D9A92E8B0
:1027C000030083E80300002CB9D16879002842D0C7
:1027D000012843D0FF30297C6A7C01F0030102F01C
:1027E00073FE0446ABE70621304600F0C0FE044607
:1027F00028B1002CB3D19DF807302B72AFE70DF153
:102800000700FFF761FCF4E70821504600F0AFFE37
:10281000044628B1002CA7D19DF80630EB71A3E740
:102820000DF10600FFF750FCF4E70DF10500FFF78E
:102830004BFCA4E70CA8FFF747FCB1E701231A46BD
:10284000394605F1100000F0AFFF0446B0FA80F3FE
:102850005B096B73B7E74FF48070BCE74FF400601F
:10286000B9E7024C6BE700BF08C51018002002044E
:1028700030BE101804BE1018ACBD1018D8BD10180A
:10288000F8B5314D2E68FFF791FB2860002859D02C
:102890000446014651F8180BD0F88C5FD0F8CC7F75
:1028A00002F076FB15F0200F09D023682022C3F830
:1028B000802FD3F8803FE36C0BB11046984715F09A
:1028C000400F09D023684022C3F8802FD3F8803FFF
:1028D000E36C0BB12020984715F0010F04D0E36C96
:1028E00013B14FF48070984715F4007F13D023681C
:1028F0004FF40072C3F8802FD3F8803F2268D2F8DB
:10290000883F43F4007123F4EE6323F0030303B123
:1029100001BEC2F8881F17F0400F09D0236840227B
:10292000C3F8C02FD3F8C03FE36C0BB11020984719
:1029300017F0010F04D0E36C13B14FF40070984707
:10294000014B1E60F8BD00BF40AA003470B50446BC
:102950004079FFF7EBFA0546184B53F82000214663
:1029600041F8540B04F1180202F0B4F8064608B11D
:10297000304670BD0023C4F8A030C4F8A430C4F8B9
:1029800098300F4B33F915500E4A03212846FFF7B4
:102990006DFA002D07DB05F01F026D09012393403E
:1029A000094A42F82530094A21466079FFF7B8FB09
:1029B0002268136843F000431360D9E70CC5101870
:1029C00048C510188128101800E100E0452C1018A7
:1029D00038B50C46154650B100F061FE00F03BFEE4
:1029E00003F08CFE05FB04F4B0FBF4F038BD01BE2F
:1029F000F2E72DE9F04705460E460824FF27A046DA
:102A000003E001BE08E00134E4B2102C1DD8A24658
:102A100006FB04F9002DF4D0284600F040FE00F03B
:102A20001AFE03F06BFE00EB59015246B1FBF9F1BF
:102A30002846FFF7CDFF01463046FFF7B2FDC0B292
:102A40008742E0D90746A046DDE74046BDE8F0876B
:102A500010B582B00446F0B1206840B104F118010D
:102A600002F0F2F9206802F0CBF900232360237909
:102A70001F2B12D194F8A830002B3DD094F8B03021
:102A80003BB994F8B8301F2B4DD194F840311F2B2F
:102A900051D102B010BD01BEDEE76079FFF746FA02
:102AA000294B33F91030002B0CDB03F01F015B09BD
:102AB00001228A402033254941F82320BFF34F8F5C
:102AC000BFF36F8F002211466079FFF729FB94F85E
:102AD000A83013B11F232371CCE718238DF80430DD
:102AE0006079FFF723FA8DF80500A3798DF8063099
:102AF00001A8FFF755F8EDE7E01D00F02DFD04F10A
:102B0000080000F029FD04F10A0000F025FD04F1A1
:102B1000090000F021FD637B002BAFD004F1100011
:102B2000FEF722FDAAE704F1B800FEF76FFD1F23B0
:102B300084F8B830A9E704F5A070FEF767FD1F23FD
:102B400084F84031A5E700BF48C5101800E100E057
:102B50002DE9F04704460D461646D0F8AC308B42BE
:102B600001D0C4F8AC10637B13B93548BDE8F087D9
:102B70002746002157F8100B02F066F90022114693
:102B80003846FEF7C3FC28B12268136843F00043BF
:102B90001360EBE704F1040929464846FFF729FFD3
:102BA0008046A06505FB00F5B9F1000F38D0484616
:102BB00000F075FD00F04FFD03F0A0FD00EB5500A7
:102BC000B0FBF5F529463846FEF7B7FC824648BB10
:102BD000424629464846FFF7FBFE06B13060002218
:102BE00001213846FEF792FCE26D94F870302BB369
:102BF0004FF48033082A01D94FF4404A43EA0A03CC
:102C000008F1FF3808F00F0843EA0803226843F090
:102C1000007313602268136843F000431360A5E754
:102C200001BEC4E7002201213846FEF76FFC22688E
:102C3000136843F000431360504697E75346D9E7C3
:102C4000062002042DE9F04704461546037AFF2BBF
:102C500008D0DF08AF2B14D807F5250707F5007754
:102C6000FF0100E00027A27AFF2A0CD0207B08B3E6
:102C7000D608AF2A20D806F5250606F50076F60117
:102C800002E0B04FEFE7002603F0070802F0070963
:102C9000102913D0202911D0013D072D00F25783B0
:102CA000DFE815F04301AA0255035C035503550301
:102CB0005503AA020026E7E7A24EE5E7012D09D059
:102CC0004FF0000A082D46D0042D00F0A180504698
:102CD000BDE8F087274657F8180B394602F056F939
:102CE00010F0010F02D04FF0000AEBE739462068E0
:102CF00002F04AF9D4F8D43110F0010F0CBF4FF0B4
:102D0000010A4FF0000A002B14BF4FF0000A0AF02E
:102D1000010AD4F8D031002B14BF4FF0000A0AF09A
:102D2000010ABAF1000FCDD02168D1F80832C3F3FF
:102D30000803D1F80822C2F3C032D34208D1D1F837
:102D40000833C3F30803002BBCD04FF0000AB9E7E7
:102D50004FF0000AB6E70022D4F8AC102046FFF787
:102D6000F7FE002E51D094F89D1031F01F0300D0D3
:102D700001BE324606F12D4303F5FE03DB0903F1E4
:102D8000A5631B01704886420ED0803086420BD06E
:102D90008030864208D06D48864205D08030864219
:102DA00002D0803086420ED1694B9E421DD94FF42D
:102DB0000033D21A02F12B4202F53D02654800EBC6
:102DC000D21203EB0213B9F1030F10D81A684FEABD
:102DD000C9071F20B84022EA000001F01F02BA40D4
:102DE00002431A604FF0010A6EE70023E1E7A9F100
:102DF00004005A68C0001F27874022EA070701F035
:102E00001F0282403A435A60ECE74FF0010A5BE749
:102E1000002E00F0A082324606F12D4303F5FE039A
:102E2000DB0903F1A5631B0147498E420ED08031B7
:102E30008E420BD080318E4208D044498E4205D05C
:102E400080318E4202D080318E420ED1404B9E4264
:102E500053D94FF40033D21A02F12B4202F53D024E
:102E60003C4901EBD21203EB0213B9F1030F46D830
:102E70001B684FEAC902D34003F01F0384F89D305A
:102E8000012303FA09F3B360324606F12D4303F53B
:102E9000FE03DB0903F1A5631B012B498E420ED013
:102EA00080318E420BD080318E4208D027498E422D
:102EB00005D080318E4202D080318E420ED1244B1B
:102EC0009E4224D94FF40033D21A02F12B4202F56C
:102ED0003D02204901EBD21203EB0213B9F1030FBB
:102EE00017D819684FEAC9021F2000FA02F221EA36
:102EF00002021A604FF0010AE9E60023ABE7A9F1EC
:102F000004025B68D200D34003F01F03B6E700233E
:102F1000DAE7A9F1040959684FEAC9091F2202FA40
:102F200009F221EA02025A60E4E7254655F8180B37
:102F3000294602F02BF810F0010F0DD04FF0000AD7
:102F4000C5E600BF00008152000043540000455414
:102F5000FFFF4454002444052946206802F014F879
:102F6000D4F8D43110F0010F0CBF4FF0010A4FF02C
:102F7000000A002B14BF4FF0000A0AF0010AD4F82F
:102F8000D031002B14BF4FF0000A0AF0010ABAF149
:102F9000000F3FF49CAE2168D1F80832C3F3080358
:102FA000D1F80822C2F3C032D34240F0DA81D1F81E
:102FB0000823C2F30802002A40F0D681002F72D005
:102FC0003B4607F12D4101F5FE01C90901F1A5615B
:102FD0000901854887420ED0803087420BD080306F
:102FE000874208D08148874205D08030874202D08E
:102FF000803087420FD17E498F4240F2CA804FF421
:1030000000315B1A03F12B4303F53D03794800EBD4
:10301000D31301EB0311B8F1030F00F2BC800B686E
:103020004FEAC801CB4003F01F0384F89C30012312
:1030300003FA08F3BB603B4607F12D4101F5FE01A1
:10304000C90901F1A5610901674887420ED08030A6
:1030500087420BD08030874208D06448874205D031
:103060008030874202D0803087420FD160498F4242
:1030700040F299804FF400315B1A03F12B4303F5C2
:103080003D035C4800EBD31301EB0311B8F1030FD0
:1030900000F28B800B684FEAC8081F2000FA08F086
:1030A00023EA00030B60002E6ED0334606F12D415B
:1030B00001F5FE01C90901F1A56109014A488642ED
:1030C0000ED0803086420BD08030864208D04748F0
:1030D000864205D08030864202D0803086420ED1B2
:1030E00043498E426BD94FF400315B1A03F12B43F5
:1030F00003F53D033F4800EBD31301EB0311B9F196
:10310000030F5ED80B684FEAC901CB4003F01F03E1
:1031100084F89D30012303FA09F3B360304606F1C9
:103120002D4101F5FE01C90901F1A5610B012E49EF
:103130008E420ED080318E420BD080318E4208D02C
:103140002A498E4205D080318E4202D080318E4293
:103150000ED1274B9E4201D94FF40032831A03F15E
:103160002B4303F53D03234901EBD31302EB031378
:10317000B9F1030F2DD81A684FEAC9091F2101FAC6
:1031800009F122EA01021A602946206801F05CFE7A
:103190009DE5114635E7A8F104004B68C100CB401E
:1031A00003F01F0341E7114666E7A8F104074B68E7
:1031B000FF001F20B84023EA00034B6073E711466D
:1031C00093E7A9F104004B68C100CB4003F01F0353
:1031D0009EE7A9F104005A68C0001F21814022EA3D
:1031E00001025A60D0E700BF00004354000045547C
:1031F000FFFF4454002444052268136843F0004351
:103200001360002F3ED094F89C1031F01F0300D0C3
:1032100001BE384607F12D4303F5FE03DA0902F13A
:10322000A5621201534B9F420ED080339F420BD0B8
:1032300080339F4208D0504B9F4205D080339F423D
:1032400002D080339F420ED14C4B9F425ED94FF447
:103250000032831A03F12B4303F53D03484800EB8A
:10326000D31302EB0312B8F1030F51D810684FEAE1
:10327000C8031F259D4020EA050001F01F01994069
:1032800001431160002E72D094F89D1031F01F039D
:1032900000D001BE324606F12D4303F5FE03DB09E3
:1032A00003F1A5631B01334886420ED0803086426D
:1032B0000BD08030864208D02F48864205D080301F
:1032C000864202D0803086420ED12C4B9E422ED9AF
:1032D0004FF40033D21A02F12B4202F53D02284886
:1032E00000EBD21203EB0213B9F1030F21D81868D7
:1032F0004FEAC9021F24944020EA040001F01F0194
:103300009140014319604FF0010AE0E40022A0E778
:10331000A8F104035068DB001F259D4020EA05004A
:1033200001F01F0101FA03F303435360AAE70023EE
:10333000D0E7A9F104025868D2001F24944020EA83
:10334000040001F01F01914001435960DBE701BE19
:103350004FF0000ABBE44FF0010AB8E44FF0010A55
:10336000B5E44FF0000AB2E44FF0000AAFE44FF0CA
:10337000010AACE40000435400004554FFFF4454EC
:1033800000244405F8B506460F461546FEF796FE9E
:10339000A8B93368D3F840332C4602E03368D3F839
:1033A0004033B3F1FF3F07D1002DF7D04CB10120DE
:1033B000FFF7D6F8013CF1E73B700020F8BD02486A
:1033C000FCE70248FAE700BF031B020402200204E4
:1033D00038B504460D46FEF771FE28B1044806E0F4
:1033E0002946206801F065FA0028F9D0002038BD90
:1033F000031B0204836913F0010F11D10268D2F894
:103400000832C3F30803D2F80822C2F3C032D34211
:1034100008D1D0F8D0310BB101207047002070479F
:10342000012070470120704708B5034628B131B12B
:1034300093F8B00028B9064808BD01BEF7E701BE01
:10344000F6E753F8180B01F00BFD0020F4E700BF7E
:10345000042002042DE9F04182B00D4616461F46B5
:10346000DDF828800446002868D04FF4F07200216F
:10347000204606F0D9FD012384F8B0301F2384F8DC
:10348000B83084F840314FF4E133C4F8AC30099BD4
:1034900001939DF8203000933B4632462946204652
:1034A000FFF790F8054668BB4422002104F1540060
:1034B00006F0BAFD0C23A3650823E365022384F814
:1034C00061301423A3670B23C4F880303F23C4F872
:1034D0009030E37A84F87430B8F1000F0ED0D8F849
:1034E0000030E36598F80400FFF749F884F86100BC
:1034F00098F80800FFF739F884F862002046FFF7D3
:1035000025FA0546ADB9B8F1000F07D0D8F80C1070
:1035100021B1D8F810202046FFF786FF637B7BB9E6
:1035200023681A68C2F381328023D3405B08C4F851
:10353000D8316DB9284602B0BDE8F08101BE94E7EC
:103540000022D4F8AC102046FFF702FB0546E7E75F
:103550002046FFF77DFAEDE710B504460078FF2816
:1035600000D110BD00F037F8FF232370F9E770B5E4
:1035700084B004460D4683780B228DF80020DA08CB
:103580008DF8012003F007038DF80230009BADF8A1
:103590000C301B0C8DF80E30039BADF808301B0C63
:1035A0008DF80A30029BADF804301B0C8DF8063004
:1035B00001A8FEF7B1FA064610B1304604B070BD5E
:1035C00029462046FEF70EFC06460028F5D001A845
:1035D000FEF7E6FAF1E710B584B00446FEF72CFCDE
:1035E00000B101BE0B238DF80030E3088DF80130E7
:1035F00004F007048DF80240009BADF80C301B0C62
:103600008DF80E30039BADF808301B0C8DF80A3096
:10361000029BADF804301B0C8DF8063001A8FEF7B4
:10362000BFFA04B010BD431E072B05D8DFE803F036
:10363000060604060404040601BE01207047431E6A
:10364000072B05D8DFE803F0060604060404040689
:1036500001BE0120704714281CD8DFE800F00B15CC
:10366000130D0F15191E17191B1B1B1B1B1B1E11DE
:103670000D0F0B0000207047052070470620704793
:1036800007207047092070470A2070470B207047B9
:103690000D20704701BE002070470120704703785D
:1036A0001C2B28D8DFE803F01A2727112727271C0F
:1036B00027271E27272A27272727272718272727AF
:1036C0001120270F1800012070474378012B01D0EB
:1036D0000120704708207047112070470220704772
:1036E00002207047122070474378012B01D012202E
:1036F00070471320704701BE0020704709207047B3
:103700004D284CD8DFE800F0272727274D292B2DFF
:103710002F2727273127272733272727272727271B
:1037200027272727272735272737272739272727F9
:103730002727272727273B273D2727273F272727D7
:1037400027272727272727274B4B4B4B4B474345FB
:103750004B4B494B4B4100207047042070470220DF
:1037600070470120704704207047012070470120F6
:1037700070470120704701207047012070470320E7
:1037800070470120704701207047102070470220C9
:10379000704701207047062070470E2070470120B7
:1037A00070470520704700002DE9F04F83B00646B2
:1037B00017469846084689B10378162B17D14378E7
:1037C00073B92E4B93E8030002AB03E9030069468B
:1037D0003046FDF77BFE03B0BDE8F08F01BEEBE79E
:1037E000274B93E8030002AB03E90300EFE7FFF781
:1037F00056FF81460025AA46AB46224822E04FF0FC
:10380000010BC9F3011209F00F0402EB820252000E
:10381000D2B21444E4B2A400E4B21C432046FFF741
:103820006FFF002818BF4AF0010AAEB1FDF71EFE77
:10383000024621463046FDF71DFE78B1B8F1000F73
:103840000CD00135032D09D80F4B5B5D9F42D6D0BC
:10385000BBF1000FF5D0D4E701BEE7E70028BAD0EE
:10386000BAF1000FB7D14846FFF7F5FE074901EB63
:10387000C0013046FDF72AFEADE700BF00C31018B7
:1038800008C31018020E02047CC51018E8C21018F4
:1038900008B503780A3B122B11D8DFE803F02F2478
:1038A000100A101010391010871011103E1D183416
:1038B00082000A2311220121002002F04FFF08BDDF
:1038C00004F00AFC0123002219461846F5E70123FB
:1038D000032211461846F0E74378002B6BD0012BEA
:1038E0006ED001BEEBE70A2300220121104602F050
:1038F00035FF0A23012211460020DEE700230122C2
:1039000002211846D9E70A23042201210020D4E726
:103910000A23052201210020CFE743780B2B3ED854
:10392000DFE803F006530B10151A1F24292E333835
:103930000A23062201210020BFE70A2307220121D2
:103940000020BAE70A23082201210020B5E70A2354
:10395000092201210020B0E70A231A460121002094
:10396000ABE70A230B2201210020A6E70A230C2241
:1039700001210020A1E70A230D22012100209CE75C
:103980000A230E220121002097E70A230F2201219A
:10399000002092E70A231022012100208DE701BEBA
:1039A0008DE701231A461946184686E701230222AD
:1039B0001946184681E701230322114618467CE781
:1039C000012304220321184677E70B230022032159
:1039D000104672E70023036043608360C3600361A5
:1039E00043618361C36103627047032900D901BE4B
:1039F00001F1100212020023835000EB012000F5B8
:103A00008152136041F2880283507047034638B1F7
:103A100000221A605A609A60DA601A615A6170472F
:103A200001BEF5E70B4B98420ED00B1E18BF0123C9
:103A300003B101BE00EB811000F5004000230360DC
:103A40008360C360836170470F2994BF0023012303
:103A5000EEE700BF0000275270B59DF810E007297F
:103A600000D901BE32F00F046CD0802A6AD001BEAA
:103A7000012B00D901BE3EF01F0400D001BE072972
:103A800000D901BE3EF01F0400D001BE00F12D4C54
:103A90000CF5FE0C4FEADC1C0CF1A56C4FEA0C1C7B
:103AA0003A4CA0420ED08034A0420BD08034A042C9
:103AB00008D0374CA04205D08034A04202D08034D8
:103AC000A0420FD1334CA04241D94FF4003CA0EBAF
:103AD0000C0404F12B4404F53D042F4D05EBD414E4
:103AE0000CEB041C032935D8DCF80040CE001F2560
:103AF000B54024EA05040EF01F0E0EFA06FE44EA55
:103B00000E04CCF8004004684FF0010C0CFA01FCE4
:103B100024EA0C0403F001038B4023430360446C4C
:103B200089000F238B4024EA030C046F24EA03036B
:103B3000802A20D002F00F028A4042EA0C0242643E
:103B4000036770BD012A92D0092A91D18FE74FF007
:103B5000000CBCE70C1FDCF80450E4001F26A64054
:103B600025EA06050EF01F0E0EFA04FE45EA0E05C4
:103B7000CCF80450C7E708248C4044EA0C044464A1
:103B8000C2F303128A401A430267DAE70000435483
:103B900000004554FFFF44540024440570B58E4690
:103BA0009DF81010BEF1070F00D901BE32F00F04CE
:103BB00000F0AD80802A00F0AA8001BE012B00D960
:103BC00001BE31F01F0400D001BEBEF1070F00D9C5
:103BD00001BE00F12D4C0CF5FE0C4FEADC1C0CF183
:103BE000A56C0CF5807C4FEA0C1C5B4CA0420ED0FF
:103BF0008034A0420BD08034A04208D0574CA04261
:103C000005D08034A04202D08034A04210D1544C60
:103C1000A04240F283804FF4003CA0EB0C0404F17E
:103C20002B4404F53D044F4D05EBD4140CEB041C60
:103C3000DCF80040012505FA0EF524EA0504CCF86D
:103C40000040BEF1070F00D901BE31F01F0400D0C3
:103C500001BE00F12D4C0CF5FE0C4FEADC1C0CF102
:103C6000A56C4FEA0C1C3C4CA0420ED08034A04204
:103C70000BD08034A04208D0384CA04205D080340C
:103C8000A04202D08034A0420FD1354CA04248D986
:103C90004FF4003CA0EB0C0404F12B4404F53D046C
:103CA000314D05EBD4140CEB041CBEF1030F3BD8D3
:103CB000DCF800404FEACE061F25B54024EA050493
:103CC00001F01F01B1402143CCF80010456C4FEAD0
:103CD0008E0C0F2101FA0CF125EA0105046F24EA8C
:103CE0000101802A30D002F00F0202FA0CF22A43BE
:103CF000426401670268012101FA0EF122EA010221
:103D000003F0010303FA0EF11143016070BD012AB3
:103D10003FF453AF092A7FF451AF4EE74FF0000C48
:103D20007BE74FF0000CB5E7AEF10404DCF804507B
:103D3000E4001F26A64025EA060501F01F01A14068
:103D40002943CCF80410C1E74564C2F3031202FA18
:103D50000CF20A430267CDE70000435400004554CB
:103D6000FFFF4454002544050024440510B40729EE
:103D700000D901BE1AB1531E062B00D901BE072976
:103D800000D901BE436C4FEA810C23FA0CF313F007
:103D9000070F0AD1046F24FA0CFC0CF00F0CBCF1D5
:103DA000080F17D003F00F0301E003F00F03802B7F
:103DB00000D000228900436F4FF00F0C0CFA01FC79
:103DC00023EA0C0302F00F028A401A4342675DF8AF
:103DD000044B70478023EAE7002800F0BC8170B5EF
:103DE0000E4614460546002A00F0B781072900D97F
:103DF00001BE2368012B00D901BE636833F00F02B6
:103E000000F06E81802B00F06B8101BE237A33F0CD
:103E10001F0300D001BEE368032B00D901BE236954
:103E2000012B00D901BE6369012B00D901BE236AB1
:103E3000012B00D901BE636A012B00D901BEA36A20
:103E4000012B00D901BEE36A032B00D901BE236B0D
:103E5000072B00D901BEE36933F01F0300D001BE78
:103E6000A36B1BB1013B062B00D901BEA36933F044
:103E7000070300D001BE636B33F0010300D001BE25
:103E8000626B072E00D901BE32F01F0300D001BEC5
:103E900005F12D4303F5FE03DB0903F1A56303F5EB
:103EA00080731B01AE498D420ED080318D420BD004
:103EB00080318D4208D0AB498D4205D080318D4292
:103EC00002D080318D420FD1A74B9D4240F20F812D
:103ED0004FF40033E91A01F12B4101F53D01A348EC
:103EE00000EBD11103EB011319680120B04021EA66
:103EF000000102F00102B2400A431A60A369072ED2
:103F000000D901BE012B00D901BEB0006A6E0721A5
:103F1000814022EA010203F00703834013436B66EA
:103F2000E369072E00D901BE33F01F0200D001BEA5
:103F3000032E00F2DE80AA6EF0001F21814022EAEB
:103F4000010203F01F0383401343AB66227A072E5E
:103F500000D901BE32F01F0300D001BE05F12D4390
:103F600003F5FE03DB0903F1A5631B017C498D42C8
:103F70000ED080318D420BD080318D4208D07949EE
:103F80008D4205D080318D4202D080318D420FD1DB
:103F9000754B9D4240F2BA804FF40033E91A01F1AB
:103FA0002B4101F53D01724800EBD11103EB0113E8
:103FB000032E00F2AD8019684FEAC60C1F2000FAEC
:103FC0000CF021EA000102F01F0202FA0CF20A438F
:103FD0001A606368072E00D901BE33F00F0200F0AB
:103FE000A680802B00F0A38001BE4FEA860C6A6C8D
:103FF0000F2101FA0CF122EA0102286F20EA0101E7
:10400000802B00F09B8003F00F0303FA0CF31A439C
:104010006A642967E368082E00D901BE032B00D922
:1040200001BE70002A6C0321814022EA010203F0E4
:104030000303834013432B642369082E00D901BE78
:10404000012B00D901BEAA690121B14022EA010277
:1040500003F00103B3401343AB616369072E00D93A
:1040600001BE012B00D901BEAA6C0121B14022EA98
:10407000010203F00103B3401343AB64296D21F047
:10408000FF01236A03F00103626A520002F0020298
:104090001343A26A920002F004021343E26AD200C0
:1040A00002F018021343226B5201D2B21343B20042
:1040B00002F47E7293400B432B65A26B3146284677
:1040C000FFF754FE2368072E00D901BE012B00D94B
:1040D00001BE002B3BD10123B3406B60002070BDBB
:1040E000012B3FF492AE092B7FF490AE8DE60023B6
:1040F000F0E6321FE96ED2001F20904021EA000155
:1041000003F01F0393400B43EB661FE7002345E7D3
:10411000311F5868C9004FF01F0C0CFA01FC20EA4F
:104120000C0002F01F028A4002435A6051E7012B43
:104130003FF45AAF092B7FF458AF55E7082000FA37
:104140000CF002431B0903FA0CF3194360E7012347
:10415000B340AB60C2E7074870470648BFE700BFFF
:104160000000435400004554FFFF4454002544051B
:104170000024440501005A00C369002B07DA0B0C28
:104180001B0403B101BE89B24160002070470148A1
:10419000704700BF01008A000368002B08DAC26084
:1041A0000B0C1B0403B101BE89B281600020704773
:1041B0000048704701008A000A4631B1C369002BEC
:1041C00005DAC36813600020704701BEF6E70148B6
:1041D000704700BF01008A0070B582B000230193D0
:1041E000044608B323690BB363690BB3236A0BB3AB
:1041F0006369DD682A0C07D02A0C12041A601B6858
:104200002069C369002B17DBADB24DB163691D6036
:104210001B68636A4BB39847002363620023A36162
:1042200063691B6802B070BD01BEDBE701BEDBE75E
:1042300001BEDBE701BEDBE701A9FFF7BDFF70B9F7
:10424000019840F0805003681E0CDBB2E2699A428C
:1042500006D9226A52F8233013B1984700E00026AD
:1042600031462069FFF788FFCEE7A36A002BD5D03F
:104270009847D3E708B5064B1B683BB1044B1B6856
:104280002C2202FB0030FFF7A7FF08BD01BEF5E7B7
:1042900044AA00341F282ED810B50C4669B30B6809
:1042A00013F01F032BD10109164A52F8212000F008
:1042B0000F0002EB4010144A106004E06268002115
:1042C00042F8231001332268B3EB521FF6D30021CA
:1042D000FFF752FF224600210B4B1868FFF75CFFE7
:1042E00008B10A480CE00021074B1868FFF744FFAB
:1042F00030B1064804E006487047054800E004482D
:1043000010BD00BF80C5101848AA003401018A0002
:1043100003018A0010B50B4614461AB1CCB193B90B
:104320000D4810BD0029F9D11F2800D901BE01098F
:104330000A4A52F8212000F00F0002EB401208490F
:104340000A601846EDE707490B604C60FFF7A2FFD3
:10435000E7E70148E5E700BF03018A0080C51018C0
:1043600048AA003484E30F3431B9D0F8003223F482
:104370008073C0F800327047D0F8003243F4807385
:10438000C0F80032704700002DE9F84F0646D1F81A
:1043900000A0D1F80490CA7A887A91F809B091F80F
:1043A000088008F10508012505FA08F5013D0AEA2B
:1043B000050309EA0505B9F1000F00F0BD80002BE7
:1043C00040F0BE80002D40F0BD80BBF1070F00F231
:1043D000BB80032A00F2BA80DFE802F002302C2E04
:1043E0002C4668BB24F00104D6F80072C7F30027FE
:1043F00000213046FFF7B8FFC6F814B229FA08F2D8
:104400002AFA08F303F00703C3F10801082000FAB1
:1044100008F0BAFBF0FA8A4218D90AF1010C0CFA3A
:1044200008FC4FEACC0C01FA08F1A9EB010EA946F1
:10443000294638E00424D4E70624D2E70224D0E752
:10444000012840F0858044F00104CDE7D018013800
:1044500000F00700AE46AC4609E09A000F219140FB
:104460004EEA010E04FA02F24CEA020C01338342D6
:10447000F3D9C6F810A2D6F8183223EA0E0343EA9D
:104480000C03C6F8183239463046FFF76DFF54E08A
:104490004FEA830B04FA0BF211430F2202FA0BF2DC
:1044A00049EA02090133072BF2D9C6F810A2D6F85F
:1044B000183223EA09030B43C6F81832BCFBF0FCA0
:1044C000BEFBF0F92EFA08FE0EF0070E294628462C
:1044D0000DE09A0004FA02F211430133072BF8DDD4
:1044E000C6F810C2C6F818120CF1010C013048458C
:1044F00001D20023F2E7BEF1000F19D13946304650
:10450000FFF732FF19E0990004FA01F210430F227D
:104510008A4048EA020801337345F4D3C6F810C252
:10452000D6F8183223EA08030343C6F81832E5E741
:10453000A84628462B46EFE7064D2846BDE8F88FEB
:10454000044DFAE7034DF8E7024DF6E7014DF4E7B5
:10455000004DF2E70100820160B129B1026842F02A
:104560001002026000207047026822F01002026010
:10457000002070470048704701008201064A00F59C
:1045800080700001135823F00F0301F00F010B435B
:1045900013500020704700BF00402952064A00F522
:1045A00080700001135823F47023090401F4702172
:1045B0000B431350002070470040295210B40328C9
:1045C00007D8104C236801228240134303F00F03E5
:1045D0002360032814D8DFE800F002070B0F094B13
:1045E00019645DF8044B7047064B59640020F8E7E6
:1045F000044B99640020F4E7024BD9640020F0E7F3
:104600000148EEE70020265201008A010B78012BB9
:104610000CD82BB9036823F0010303600020704716
:10462000036843F0010303600020704700487047AF
:10463000010086011F2B31D810B500F5005E00F592
:10464000105C00F580400C79B4B95EF8234024EA90
:1046500002044EF823404C79A4B95CF8234024EAC4
:1046600002044CF82340897991B950F8231021EACB
:10467000020140F8231010BD5EF8234014434EF8A9
:104680002340E8E75CF8234014434CF82340EAE772
:1046900050F82310114340F82310ECE77047000056
:1046A0002DE9F84305460B884A8808798F794E79B9
:1046B000934276D80C4644498D4221D043498D42DD
:1046C00071D19F2B73D840498D421DD03F498D42F7
:1046D0006FD19F2A6FD801286FD8012E6FD8012F74
:1046E0006FD8D21A013203F01F0CCCF120014FEA2F
:1046F00053188A420CD9ACF120071744002223E05A
:10470000B3F59B7FDFD9D9E7B2F59B7FE3D9DDE72E
:1047100002EB0C01013901F01F01002205E0012329
:1047200003FA0CF31A430CF1010C8C45F7D94346FC
:1047300021462846FFF77EFF002635E0012303FAD5
:104740000CF31A430CF1010CBCF11F0FF6D94346D0
:1047500021462846FFF76EFF08F101084FEA571976
:1047600007F01F06002709E043464FF0FF322146BD
:104770002846FFF75FFF08F1010801374F45F3D3E3
:1047800096B10022134603E0012199400A43013308
:10479000B342F9D3434621462846FFF74BFF002694
:1047A00002E00B4E00E00A4E3046BDE8F883084EAA
:1047B000FAE7074EF8E7064EF6E7054EF4E7044E33
:1047C000F2E7034EF0E700BF00000252000002547F
:1047D000010086010B884A88934224D810B4174CF4
:1047E000A0420ED0164CA0421FD19F2B21D8134CB3
:1047F000A0420AD0124CA0421DD19F2A0FD91148C5
:1048000014E0B3F59B7FF2D9ECE7B2F59B7F06D9B4
:10481000F0E703F5806C4C6840F82C40013393427C
:10482000F7D9002002E00748704706485DF8044BBE
:1048300070470448FAE70348F8E700BF0000025257
:10484000000002540100860110B4D0F8003303F0D8
:104850001F030133082B13D9102B13D900239342C4
:104860000BD2D0F8404341F823400133F7E7D0F8AA
:104870004043CC5401339342F9D35DF8044B704765
:104880000023F8E700239342F7D2D0F8404321F801
:1048900013400133F7E710B51446D0F80833C3F3DB
:1048A00008039A4200D31C462246FFF7CDFF20465C
:1048B00010BD0268C2F381328023D340D0F80822B1
:1048C000C2F308029A4203D0C0F840120120704798
:1048D0000020704710B4D0F8003203F01F030133FA
:1048E000082B13D9102B13D9002393420BD251F864
:1048F0002340C0F840420133F7E7CC5CC0F84042A7
:1049000001339342F9D35DF8044B70470023F8E775
:1049100000239342F7D231F81340C0F840420133EC
:10492000F7E710B514460268C2F381328023D34002
:10493000D0F80822C2F308029B1AA34200D81C46F2
:104940002246FFF7C7FF204610BD02460168C1F3AB
:1049500081318023CB405808136D13F0FF0300D042
:10496000184670472DE9F04105460C460368C3F32D
:1049700081338026DE40D0F8007207F018078A6A7B
:10498000012A0AD8D5F80832C3F308039E4202D0A0
:10499000A36A012B16D0BDE8F081D1F82480CA6249
:1049A000013AB8F1000F00D002B901BE41462846D5
:1049B000FFF7B7FFA36A1B1AA36207B14000404488
:1049C0006062DFE70023A3623FBB636A1E78FCF7E7
:1049D000D8FB4FF40073C5F8803FD5F8803FC5F889
:1049E0004062FCF7D2FBD5F8883F23F4007222F036
:1049F000010242F4007223F4EE6323F0030303B1D7
:104A000001BEC5F8882F236843F002032360636B5F
:104A1000002BC0D001209847BDE7636A1E88D6E707
:104A200070B505460C46FFF790FF0646A169E2699E
:104A300001B102B901BE2846FFF72DFF236A0344E6
:104A40002362E3691B1AE3613BBBA3680BB3E36812
:104A5000B3421CD3731E2968C1F381318022CA403E
:104A6000934200D301BED5F8042322F0FF02DBB24B
:104A70001343C5F804330123C5F8C83F636823F026
:104A800001036360636B0BB10420984770BD013B69
:104A9000E1E70023C5F8C83FF0E7A269D5F80013A5
:104AA00011F0180F00D040000244A261B342EDD2D1
:104AB000013B2968C1F381318022CA40934200D36F
:104AC00001BED5F8042322F0FF02DBB21343C5F880
:104AD0000433DBE7002800F089810346002900F059
:104AE000878110B40878022800D901BE487B0238BB
:104AF000C0B2062800D901BE887B20B1022802D0AE
:104B0000032800D001BE91F82100012800D901BE80
:104B100091F82800012800D901BE0878012806D99B
:104B2000887F48B148680138062805D903E04868FD
:104B30000838082800D901BE88680538042800D93B
:104B400001BE4869FF2800D901BE8869FF2800D945
:104B500001BE887C30B1087818B98868092800F04F
:104B60008F8001BE886B20F4366020F00D0000B10C
:104B700001BE086C20F4EE6020F0030000B101BE1D
:104B80000878022800F08180486800F1FF3C087F27
:104B9000002800F081804FF480308C68082C7DD98B
:104BA0004FF4804420430CF00F0C40EA0C0040F01E
:104BB000007018604C6B1868C0F3813C802020FAAC
:104BC0000CF0844200D301BECC6B1868C0F3813C6A
:104BD000802020FA0CF0844200D301BE4C6A186891
:104BE000C0F3813C802020FA0CF0844200D301BE47
:104BF0000878000600F040701864487F00284FD005
:104C000040208C7C002C4DD04FF4806420430C7CE1
:104C1000002C49D04FF4807420434C7C002C45D0AC
:104C20004FF400742043CC6A04F1FF3C4FEA0C4C73
:104C30000CF4702C40EA0C0091F80DC00CF1FF3C14
:104C40000CF0070C40EA0C0091F80EC04FEA0C1C67
:104C50000CF0300C40EA0C009864986C91F83040ED
:104C600034B34FF0807420439864087B10B34FF442
:104C70008070CC7B04BB0C78022C45D000241DE056
:104C8000887B00283FF46EAF6BE7887F00287FF4B5
:104C90007BAF4FF0000C7AE700207EE7002481E72D
:104CA0000020AEE70024B1E70024B5E70024B9E70F
:104CB0000024D8E70020DCE74FF4007420438C6820
:104CC00004F1FF3C0CF01F0C40EA0C00C3F8000399
:104CD00091F814C08869000400F47F004CEA0000D9
:104CE000C3F81003CC6AD3F8000300F01F000330B0
:104CF000844201D3102C00D901BEC87F38B1087896
:104D0000012863D0002403E04FF40074D6E70024A8
:104D1000487B013800F00700204391F80EC04FEAAD
:104D20000C1C0CF0300C40EA0C005864087B002886
:104D30004FD04FF480748868013800F01F00204382
:104D40000C78012C47D000242043C3F8000291F8CE
:104D50003400C3F8040391F8200000283ED04FF03F
:104D6000007091F82140012C3AD00024204391F8A2
:104D70002840012C37D00024204391F824402043C0
:104D8000186591F83C00C3F80402886B20F4926027
:104D900020F002000005000DC3F8C80F086C20F0D9
:104DA0008C004005400DC3F8880F1AB300205060F6
:104DB00010609060D0601062D06250638B7F82F888
:104DC00030300D4B93635DF8044B70474FF48074A3
:104DD0009EE70024AFE74FF48034B5E70020C0E73A
:104DE0004FF08074C2E74FF48034C5E70348704742
:104DF000024870470020E6E7EFCDAB000160AA0053
:104E0000104B03604FF0407303640023836440F24F
:104E10000712C0F80023C0F80433C0F8103343640D
:104E2000C0F80022C0F804320365C0F8C83EC0F8DC
:104E3000883EC0F8C83FC0F8883FC0F8083FC0F8B7
:104E4000483F70470F000003036823F000430360EE
:104E500021B100224A600A600A62CA6270470000FB
:104E6000F8B505460E4614461F4653B1BA6B164BAD
:104E70009A4200D001BE06B104B901BE06B114B910
:104E8000F8BD01BEF2E72846FFF75FFDBE60FC609B
:104E900000233B617B61844214D3441E2A68C2F321
:104EA00081328023D3409C4200D301BED5F8043325
:104EB00023F0FF03E4B22343C5F804330123C5F80C
:104EC000C83FDDE7013CE9E7EFCDAB0008694B697E
:104ED000834202D84B69C01A7047CB684A699B1A53
:104EE000184470472DE9F04107460D46FFF72DFDA8
:104EF0008046D7F80863C6F308062C6931E0002421
:104F000035E06B6B0BB1082098476B69A34231D138
:104F10000023C7F8C83FECB1013C2C61EC6829467E
:104F20003846FFF7D3FF201A804511D900B1013868
:104F30003A68C2F381328023D340984200D301BE45
:104F4000D7F8043323F0FF03C0B20343C7F8043398
:104F5000BDE8F081EC68013CDFE7AB6823F8142082
:104F6000013E002ED9D00134EB68A342C7D06B6953
:104F7000A342C6D0D7F84023D7F8003313F0180F58
:104F8000EBD1AB681A55EBE7486870470868704783
:104F900038B504460D46D0F8003E13F0080F3FD058
:104FA000D0F8CC3F13F448730AD04A681A434A60D9
:104FB000C0F8C03FD0F8C03F4B6B0BB110209847F2
:104FC000D4F8CC3F13F4006F09D06B6843F400634E
:104FD0006B604FF40063C4F8C03FD4F8C03FD4F80E
:104FE000CC3F13F0010F0DD0EB69002B52D1AB6811
:104FF0001BB129462046FFF775FF0123C4F8C03FC7
:10500000D4F8C03FD4F8CC3F13F0040F08D06B6B3A
:105010000BB1402098470423C4F8C03FD4F8C03FE8
:10502000D4F8003E13F0040F33D0D4F88C3F13F4BF
:10503000A0630AD02A681A432A60C4F8803FD4F8D3
:10504000803F6B6B0BB120209847D4F88C3F13F056
:10505000010F24D1D4F88C3F13F4007F0BD0002231
:10506000C4F8882F2B6823F001032B60EA626B6B76
:105070000BB102209847D4F88C3F13F0100F08D0E2
:105080006B6B0BB1802098471023C4F8803FD4F895
:10509000803F38BD29462046FFF7C2FCADE72946D0
:1050A0002046FFF75FFC0123C4F8803FD4F8803F1F
:1050B000D0E700008446002800F0AA80002900F014
:1050C000A980002B00F0A88000685A6200221A858F
:1050D00083F82C2090423DDBDCF8C83723F0030333
:1050E000CCF8C8370B78012B00D901BE0B7A012B05
:1050F00004D9023BDBB2052B00D901BE4B68072B5C
:1051000000D901BE0B7B012B00D901BE0B6803F057
:1051100001034A68120402F4E0221343CA6812062B
:1051200002F080721343CCF800300B7E7BB3DCF8C6
:10513000083023F00303CCF808304B69962B0ED8C7
:10514000DCF8083043F00403CCF808300023CCF836
:10515000D83722E010F0010FBED000207047A3F135
:105160009702292A08D9A3F1C102342A0BD9F63BA8
:10517000432B0AD8022300E00023DCF80820134365
:10518000CCF8083009E00123F7E70323F5E7DCF862
:10519000083043F00803CCF80830DCF8083023F47A
:1051A0004013CCF80830DCF808208B7E1B0503F494
:1051B00040131343CCF80830DCF8003023F44013DC
:1051C000CCF80030DCF8003023F44003CCF8003099
:1051D0004B69B3F5967F0DD3DCF8003043F4001330
:1051E000CCF80030DCF8003043F40003CCF8003099
:1051F00000207047DCF8003043F48013CCF8003016
:10520000DCF8003043F48003CCF800300020704715
:105210000248704701487047004870470400B200D8
:1052200008B500230B604B608B60CB600B614B615A
:105230008B61036843F000430360836813F0040F3D
:1052400003D1836813F0080F03D008BD642001F078
:10525000FBFA074B5B6813F0010FF7D002E0642004
:1052600001F0F2FA024B5B68002BF8DBEDE700BFC0
:105270000000425400B54FEA102E4FEA104CC0F324
:105280000740012800D901BE5FFA8EFE20BB0A202C
:10529000704500D801BE002943D11CF0FF0C1DD081
:1052A000BCF1010F2FD08A426DD2FF2B6DD84FEA8F
:1052B0004C6C0CF1A44C0CF5802C02EBCE2E0EF5B0
:1052C000806E5CF82E2022F47F421B029BB21343B7
:1052D0004CF82E30002027E00620D9E70EF1FF31F0
:1052E000082906D8DFE801F01707090B05050505B1
:1052F0000D006146D7E70421D5E70121D3E701215D
:10530000D1E70121CFE7BEF1020F06D0BEF1030FB6
:1053100005D16146C7E70521C5E76146C3E700211E
:10532000C1E7012902D01C485DF804FB1CF0FF0C0A
:1053300007D1BEF1010F24D0BEF1080F02D06146A3
:1053400000E00021914222D9B3F5803F21D24FEAFB
:105350004C6C0CF1A44C0CF5802C02EBCE2202F527
:10536000A0625CF8221021F47F0121F47F411B022E
:1053700023F07F4323F0FF0319434CF82210002051
:10538000D2E70421DEE70448CEE70348CCE7024831
:10539000CAE70148C8E700BF01004A0070B54FEAFC
:1053A000102C4FEA104EC0F30740012800D901BE6F
:1053B0005FFA8CFC48B90A20604500D801BE02297A
:1053C00005D0404803294CD070BD0620F4E71EF0FC
:1053D000FF002DD0012833D00024A2423BD2B3F5E8
:1053E000803F3AD2049C1F2C39D8400600F1A440DB
:1053F00000F5802002EBCC2505F5C06550F825406E
:1054000024F47F0424F47F441E0226F07F4626F015
:10541000FF06344340F8254050F8254024F0F804B6
:10542000049EF600F6B2344340F825400020C9E758
:10543000BCF1010F09D0BCF1070F08D10124CCE762
:10544000BCF1010F05D00024C7E70224C5E70446DC
:10545000C3E70324C1E71B48B4E71A48B2E7194879
:10546000B0E71EF0FF0E04D1BCF1010F27D071464A
:1054700000E000218A42A7D2B3F1807FA4D2049930
:105480001F29A1D84FEA4E6E0EF1A44E0EF5802EC4
:1054900002EBCC2202F5E0625EF82210C9B241EACA
:1054A00003234EF822305EF8221021F0F801049B0D
:1054B000DB00DBB20B434EF82230002084E761466C
:1054C000D8E700BF01004A0030B54FEA102C030CAA
:1054D000C0F30744012C00D901BE5FFA8CFCBCB9B3
:1054E0000A24644500D801BE032900F2898039B935
:1054F00013F0FF040ED0012C2ED00024A2426BD357
:10550000012933D0022942D003295AD03E4876E0FF
:105510000624E6E70CF1FF3EBEF1080FEED801A528
:1055200055F82EF069551018495510184D5510189A
:1055300051551018FD541018FD541018FD54101832
:10554000FD541018555510180424D7E70124D5E749
:105550000124D3E70124D1E7BCF1020FCED0BCF186
:10556000030FCBD00024C9E70524C7E713F0FF04DD
:1055700007D1BCF1010F08D0BCF1080F02D1012402
:1055800000E00024A24227D3BCE70424FAE713F08A
:10559000FF0405D0012C0BD00024A2421CD3B3E79A
:1055A000BCF1010F09D0BCF1070FF6D10124F4E7DB
:1055B000BCF1010F03D00024EFE70224EDE7032440
:1055C000EBE713F0FF0404D1BCF1010F02D16446F4
:1055D00000E00024A24215D2090201F44071D2B2C7
:1055E0005B0603F1A44303F580230A434FEACC2171
:1055F00051FA80F000F5407043F82020002030BDC3
:105600000148FCE70048FAE701004A004FEA102C85
:10561000030CC0F30740012800D901BE5FFA8CFCDF
:10562000C0B90A20604500D801BE032900F28A8073
:1056300010B539B913F0FF000ED001282ED000208C
:1056400082426BD3012933D0022942D003295AD098
:105650003E4876E00620E5E70CF1FF3EBEF1080F7C
:10566000EED801A454F82EF0AD5610188D5610182F
:10567000915610189556101841561018415610188A
:105680004156101841561018995610180420D7E7A3
:105690000120D5E70120D3E70120D1E7BCF1020FBB
:1056A000CED0BCF1030FCBD00020C9E70520C7E75F
:1056B00013F0FF0007D1BCF1010F08D0BCF1080FB7
:1056C00002D1012000E00020824227D3BCE7042061
:1056D000FAE713F0FF0005D001280BD0002082422A
:1056E0001CD3B3E7BCF1010F09D0BCF1070FF6D111
:1056F0000120F4E7BCF1010F03D00020EFE7022006
:10570000EDE70320EBE713F0FF0004D1BCF1010F3C
:1057100002D1604600E00020824215D2090201F465
:105720004071D2B25B0603F1A44303F58023114319
:1057300041F0034141F47F014FEA4C3299509B58AC
:10574000002010BD014870470048FAE701004A00F8
:105750004FEA102C030CC0F30740012800D901BE0A
:105760005FFA8CFCC0B90A20604500D801BE03294D
:1057700000F2878010B539B913F0FF000ED0012870
:105780002ED0002082426BD3012933D0022942D08F
:1057900003295AD03D4873E00620E5E70CF1FF3EAF
:1057A000BEF1080FEED801A454F82EF0F1571018EE
:1057B000D1571018D5571018D957101885571018E9
:1057C000855710188557101885571018DD57101871
:1057D0000420D7E70120D5E70120D3E70120D1E756
:1057E000BCF1020FCED0BCF1030FCBD00020C9E733
:1057F0000520C7E713F0FF0007D1BCF1010F08D067
:10580000BCF1080F02D1012000E00020824227D322
:10581000BCE70420FAE713F0FF0005D001280BD005
:10582000002082421CD3B3E7BCF1010F09D0BCF1C8
:10583000070FF6D10120F4E7BCF1010F03D00020DF
:10584000EFE70220EDE70320EBE713F0FF0004D1C0
:10585000BCF1010F02D1604600E00020824212D26A
:10586000090201F44071D2B25B0603F1A44303F5CF
:105870008023114341F080414FEA4C32995000207F
:1058800010BD024870470148FAE700BF01004A0016
:10589000032800D901BE064AD2F8903323F4E0630E
:1058A000000200F4E0600343C2F89033704700BF89
:1058B00000104052052800D901BE054AD2F8003335
:1058C00023F0070300F007000343C2F800337047DA
:1058D00000104052030AC0F30722C0B2012A00D9C7
:1058E00001BE052800D901BEFF290ED8DBB229333D
:1058F0005B0600F5807080011A5822F47F4209028D
:1059000089B20A431A50002070470148704700BF0F
:1059100001004A00030AC0F3072CC0B2BCF1010F1A
:1059200000D901BE052800D901BE022900D901BE57
:1059300019B101290BD00B487047DBB22933800124
:1059400000EB436044F21003C25000207047DBB20A
:105950002933800100EB436044F21403C25000205D
:10596000704700BF01004A00012800D901BE052987
:1059700000D901BE1F2A00D901BE2930890101EBDF
:10598000406144F2100C51F80C30012000FA02F290
:1059900023EA020341F80C30704700000D2806D8B6
:1059A00000F59260034B53F82000C00F70470020B1
:1059B000704700BF00004052431E0C2B0AD8064A15
:1059C00000F5926052F8203023F0004342F8203076
:1059D00000207047014870470000405201004A0013
:1059E0000D280FD80F290FD8084A00F5926052F8F9
:1059F000203023F00F0301F00F010B4342F8203059
:105A0000002070470248704701487047000040522C
:105A100001004A000D2800D901BE00F59260034B39
:105A200053F8200000F00F00704700BF0000405204
:105A30000D2810D80F2910D8094A00F5926052F8A5
:105A4000203023F47063090201F470610B4342F8C3
:105A5000203000207047034870470248704700BF5D
:105A60000000405201004A000D2800D901BE00F597
:105A70009260034B53F82000C0F30320704700BF2F
:105A80000000405270B50F2813D90026304670BD73
:105A900001340D2CFAD82046FFF780FF0028F7D0FC
:105AA0002046FFF7B7FF8542F2D10123A3401E43F2
:105AB000EEE7054600242646EBE700000D2810D847
:105AC000094A00F5946052F8203023F4807381F085
:105AD0000101090201F480710B4342F820300020DB
:105AE00070470248704700BF0000405201004A0062
:105AF00058B970476408013564B114F0010FF9D04A
:105B000031462846FFF7DAFFF4E770B50E46044643
:105B10000025F1E770BD0000024BD3F89403C0F3F9
:105B2000800070470010405210B504460A4AD2F86F
:105B3000903343F00803C2F8903303E0012000F0F3
:105B40009FFE013CFFF7E8FF08B9002CF6D10CB12D
:105B5000002010BD0148FCE70010405202004A003E
:105B600008B5054AD2F8703343F00043C2F87033E9
:105B7000FA2000F085FE08BD00104052024B98420A
:105B800001D8024B1860704700E1F5054CAA0034BB
:105B9000014B1868704700BF4CAA003443681F2BA4
:105BA00000D901BE83680F2B00D901BE0F4BD3F87B
:105BB0006033002B17DB436803F01F038268120277
:105BC00002F470621A430A4B03F58051C1F8642352
:105BD00003F540531A6A017B0A431A620268054BB7
:105BE0001A60002070470448704700BF0010405200
:105BF0000000405250AA003403004A00044BD3F87E
:105C0000680300F00300032800D070470220FCE77F
:105C10000010405238B5154BD3F86033002B20DB11
:105C20000546124AD2F8603343F00043C2F86033AD
:105C3000044603E0012000F023FE013CFFF7DEFFF5
:105C4000022801D0002CF5D16DB10CB100200BE081
:105C5000064AD2F8603323F00043C2F860330448A8
:105C600002E0044800E0284638BD00BF0010405262
:105C700002004A0003004A0008B5FFF7BFFF0228F0
:105C800001D0002008BD014B1868FBE750AA003482
:105C9000014B1860704700BF50AA0034024BD3F884
:105CA0004403C00F704700BF00104052034AD2F8AF
:105CB000443343F00043C2F844337047001040526D
:105CC000032908D940F21113994204D040F213136A
:105CD000994200D001BE052818D8FF290DD901F03E
:105CE0001F010B4B00F1400243F8221000F59060B9
:105CF000072243F820200020704701F0070100F53B
:105D00009060034B43F82010002070470148704713
:105D10000000405201004A000246052800D901BE99
:105D200002F59063074951F8230000F007000728A7
:105D300000D07047403251F8220000F01F0040F4BC
:105D40008070F6E70000405208B5052800D901BE72
:105D5000FFF7E2FF032807D8032803D8DFE800F0A5
:105D6000281F223A002036E040F21113984229D031
:105D700040F21313984206D1174BD3F87033002B1F
:105D800013DB002027E0B0F5887F06D1124BD3F853
:105D90008033002B13DB00201DE000201BE0FFF709
:105DA000F7FE18E0FFF768FF15E04FF4004012E03F
:105DB000FFF774FF08B900200DE008480BE04FF42E
:105DC000004008E0FFF7A8FE08B9002003E04FF408
:105DD000004000E0024808BD0010405280F0FA0286
:105DE00000127A00012800D901BEB0304001024BF8
:105DF0001858C00F704700BF0000405238B5012846
:105E000000D901BE084DB03044012B5923F0405356
:105E100043F000532B51012000F032FD2B5923F0A9
:105E200000432B51002038BD0000405238B50446D5
:105E30000D46012800D901BE2046FFF7D3FF0028F8
:105E400040F091802A6891784B1EDBB20F2B00F254
:105E50008C805378002B00F08A80102B00F2898010
:105E600010780F2840F28780C82800F2868092F8C8
:105E700004C0BCF1020F67D01B0203F4F8530343C4
:105E8000090401F4F8110B43D278D20602F0006243
:105E900013433B4A04F1B001480102EB411C13508B
:105EA0002868836823F07F43017B090701F0E04104
:105EB0000B43417B43EAC173CCF8043029680B697A
:105EC000C3F30903087D000400F4E0200343487D88
:105ED000000600F080700343887D000700F08050CA
:105EE0000343C97D43EAC17302EB441241F20861E6
:105EF000535028688369C3F30A03017F490301F4FF
:105F000000510B43417F43EAC17341F20C6153508E
:105F100029680B6A03F00F03486A0001C0B203430B
:105F2000886A000380B20343C86A000400F470204A
:105F30000343086B000500F470000343496B43EA18
:105F4000017341F2106153500D49B03464010B5993
:105F500023F040532A681279120702F0405213438B
:105F60000B51002000E0074838BD0748FCE7064811
:105F7000FAE70548F8E70448F6E70348F4E700BF06
:105F80000000405203004A0001004A0038B50546AF
:105F90000C46012800D901BE38220021206804F0F7
:105FA00043F8214A05F1B003580102EB431113589D
:105FB000206803702068C3F3042C80F801C02068B7
:105FC000C3F3044C80F802C02068C3F3C06C80F8AF
:105FD00003C02068C3F3017303714B68216823F089
:105FE0007F408860206813F0E04118BF01210173F1
:105FF0002168DB0F4B7302EB451241F20863D35863
:106000002268D9B211612268C3F302411175226876
:10601000C3F3006151752268C3F300719175226862
:10602000DB0FD375002038BD0000405270B5054627
:106030000E46012800D901BE214905F1B0035B01DC
:10604000CA5842F00042CA50344603E0012000F032
:1060500017FC013C6B0103F1A44303F5800341F2FB
:1060600014629B5813F0010F01D1002CEED106B140
:1060700094B105F1B0035B01114AD358C3F3017326
:10608000022B01D0002070BDB0356D01535943F093
:10609000405353510020F6E7094E05F1B004640166
:1060A000335923F0405343F000533351012000F0A3
:1060B000E7FB335923F0004333510248E3E700BFC5
:1060C0000000405202004A002DE9F04190B0044621
:1060D000012800D901BE02AD38220021284603F074
:1060E000A3FF00950023019369462046FFF74EFF6A
:1060F0002046FFF777FE38B1009B1B79022B01D0B9
:10610000012202E0002200E00022009B1E785D7860
:1061100028469F78D3F80880CAB1CDB10FB9384668
:1061200016E02046FFF710FE0446310A360616EB4D
:10613000080641F10001A0FB0606A5FB072304FBAE
:10614000016102F0AFFE000E40EA012000E00020F5
:1061500010B0BDE8F0810000034600B101BE60331D
:106160009B01024AD058C00F704700BF0000405248
:1061700038B5044600B101BE084D6034A4012B5966
:1061800023F0405343F000532B51012000F078FBE3
:106190002B5923F000432B51002038BD0000405202
:1061A00070B504460D46012800D901BE2046FFF710
:1061B000D3FF002840F0DB806A681178CB1FDBB288
:1061C000F22B00F2D6805378072B00F2D48090781F
:1061D000072800F2D280D678022E00F0B9801B0288
:1061E00003F4E0631943000300F4E0400143137932
:1061F00041EAC371624A04F16000830102EB80103E
